{
  "contractName": "Adoption",
  "abi": [
    {
      "constant": true,
      "inputs": [
        {
          "name": "",
          "type": "uint256"
        }
      ],
      "name": "adopters",
      "outputs": [
        {
          "name": "",
          "type": "address"
        }
      ],
      "payable": false,
      "stateMutability": "view",
      "type": "function",
      "signature": "0x43ae80d3"
    },
    {
      "constant": true,
      "inputs": [],
      "name": "owner",
      "outputs": [
        {
          "name": "",
          "type": "address"
        }
      ],
      "payable": false,
      "stateMutability": "view",
      "type": "function",
      "signature": "0x8da5cb5b"
    },
    {
      "inputs": [],
      "payable": false,
      "stateMutability": "nonpayable",
      "type": "constructor",
      "signature": "constructor"
    },
    {
      "constant": false,
      "inputs": [],
      "name": "authorize",
      "outputs": [],
      "payable": false,
      "stateMutability": "nonpayable",
      "type": "function",
      "signature": "0xababa4a7"
    },
    {
      "constant": false,
      "inputs": [
        {
          "name": "petId",
          "type": "uint256"
        }
      ],
      "name": "adopt",
      "outputs": [
        {
          "name": "",
          "type": "uint256"
        }
      ],
      "payable": false,
      "stateMutability": "nonpayable",
      "type": "function",
      "signature": "0x8588b2c5"
    },
    {
      "constant": true,
      "inputs": [],
      "name": "getAdopters",
      "outputs": [
        {
          "name": "",
          "type": "address[16]"
        }
      ],
      "payable": false,
      "stateMutability": "view",
      "type": "function",
      "signature": "0x3de4eb17"
    }
  ],
  "bytecode": "0x608060405234801561001057600080fd5b5033601060006101000a81548173ffffffffffffffffffffffffffffffffffffffff021916908373ffffffffffffffffffffffffffffffffffffffff1602179055506105d7806100616000396000f3fe60806040526004361061006d576000357c0100000000000000000000000000000000000000000000000000000000900463ffffffff1680633de4eb171461007257806343ae80d3146100c55780638588b2c5146101405780638da5cb5b1461018f578063ababa4a7146101e6575b600080fd5b34801561007e57600080fd5b506100876101fd565b6040518082601060200280838360005b838110156100b2578082015181840152602081019050610097565b5050505090500191505060405180910390f35b3480156100d157600080fd5b506100fe600480360360208110156100e857600080fd5b810190808035906020019092919050505061027e565b604051808273ffffffffffffffffffffffffffffffffffffffff1673ffffffffffffffffffffffffffffffffffffffff16815260200191505060405180910390f35b34801561014c57600080fd5b506101796004803603602081101561016357600080fd5b81019080803590602001909291905050506102b3565b6040518082815260200191505060405180910390f35b34801561019b57600080fd5b506101a46103c8565b604051808273ffffffffffffffffffffffffffffffffffffffff1673ffffffffffffffffffffffffffffffffffffffff16815260200191505060405180910390f35b3480156101f257600080fd5b506101fb6103ee565b005b610205610515565b6000601080602002604051908101604052809291908260108015610274576020028201915b8160009054906101000a900473ffffffffffffffffffffffffffffffffffffffff1673ffffffffffffffffffffffffffffffffffffffff168152602001906001019080831161022a575b5050505050905090565b60008160108110151561028d57fe5b016000915054906101000a900473ffffffffffffffffffffffffffffffffffffffff1681565b6000600f82111515156102c557600080fd5b600080905060008090505b601180549050811015610363573373ffffffffffffffffffffffffffffffffffffffff1660118281548110151561030357fe5b9060005260206000200160000160009054906101000a900473ffffffffffffffffffffffffffffffffffffffff1673ffffffffffffffffffffffffffffffffffffffff1614156103565760019150610363565b80806001019150506102d0565b5080151561037057600080fd5b3360008460108110151561038057fe5b0160006101000a81548173ffffffffffffffffffffffffffffffffffffffff021916908373ffffffffffffffffffffffffffffffffffffffff16021790555082915050919050565b601060009054906101000a900473ffffffffffffffffffffffffffffffffffffffff1681565b60006001905060008090505b60118054905081101561048d573373ffffffffffffffffffffffffffffffffffffffff1660118281548110151561042d57fe5b9060005260206000200160000160009054906101000a900473ffffffffffffffffffffffffffffffffffffffff1673ffffffffffffffffffffffffffffffffffffffff161415610480576000915061048d565b80806001019150506103fa565b5080151561049a57600080fd5b601180548091906001016104ae9190610539565b503360116001601180549050038154811015156104c757fe5b9060005260206000200160000160006101000a81548173ffffffffffffffffffffffffffffffffffffffff021916908373ffffffffffffffffffffffffffffffffffffffff16021790555050565b61020060405190810160405280601090602082028038833980820191505090505090565b8154818355818111156105605781836000526020600020918201910161055f9190610565565b5b505050565b6105a891905b808211156105a457600080820160006101000a81549073ffffffffffffffffffffffffffffffffffffffff02191690555060010161056b565b5090565b9056fea165627a7a7230582018aed43ae708ba6df4163fbec4aaa6102d9555a45f0ba8b0d0e710ed769edfcb0029",
  "source": "pragma solidity ^0.5.0;\r\n\r\ncontract Adoption {\r\n\r\n    address[16] public adopters;\r\n    address public owner;\r\n\r\n    struct auth{\r\n        address addr;\r\n    }\r\n\r\n    auth[] auths;\r\n    constructor() public {\r\n        owner = msg.sender;\r\n    }\r\n\r\n    function authorize() public {\r\n        bool token = true;\r\n        for (uint i = 0; i < auths.length; i++){\r\n            if(auths[i].addr == msg.sender){\r\n                token = false;\r\n                break;\r\n            }\r\n        }\r\n        require(token);\r\n        auths.length++;\r\n        auths[auths.length - 1].addr = msg.sender; \r\n    }\r\n\r\n    function adopt(uint petId) public returns (uint) {\r\n        require(petId <= 15);\r\n        bool token = false;\r\n        for (uint i = 0; i < auths.length; i++){\r\n            if(auths[i].addr == msg.sender){\r\n                token = true;\r\n                break;\r\n            }\r\n        }\r\n        require(token);\r\n        \r\n        adopters[petId] = msg.sender;\r\n        return petId;\r\n    }\r\n\r\n    function getAdopters() public view returns (address[16] memory) {\r\n        return adopters;\r\n    }\r\n\r\n}",
  "sourcePath": "C:/Users/ACER/Desktop/pet-shop-tutorial/contracts/Adoption.sol",
  "compiler": {
    "name": "solc",
    "version": "0.5.0+commit.1d4f565a.Emscripten.clang"
  },
  "schemaVersion": "3.0.0",
  "updatedAt": "2019-05-19T08:22:09.231Z",
  "devdoc": {
    "methods": {}
  },
  "userdoc": {
    "methods": {}
  }
}